:020000040000fa
:080000000001040000000000f3
:020000040000fa
:0400080008020000ea
:020000040000fa
:04000c004a020000a4
:020000040000fa
:040010008a02000060
:020000040000fa
:0400140028020000be
:020000040000fa
:040018006a02000078
:020000040000fa
:04001c00ea020000f4
:020000040000fa
:04002000ea020000f0
:020000040000fa
:04002400ea020000ec
:020000040000fa
:04002800ea020000e8
:020000040000fa
:04002c00ea020000e4
:020000040000fa
:04003000ea020000e0
:020000040000fa
:04003400ea020000dc
:020000040000fa
:04003800ea020000d8
:020000040000fa
:04003c00ea020000d4
:020000040000fa
:04004000ea020000d0
:020000040000fa
:04004400ea020000cc
:020000040000fa
:04004800ea020000c8
:020000040000fa
:04004c00ea020000c4
:020000040000fa
:04005000ea020000c0
:020000040000fa
:04005400ea020000bc
:020000040000fa
:04005800ea020000b8
:020000040000fa
:04005c00aa020000f4
:020000040000fa
:04006000ea020000b0
:020000040000fa
:04006400ea020000ac
:020000040000fa
:04006800ea020000a8
:020000040000fa
:04006c00ea020000a4
:020000040000fa
:04007000ea020000a0
:020000040000fa
:04007400ea0200009c
:020000040000fa
:04007800ea02000098
:020000040000fa
:04007c00ea02000094
:020000040000fa
:04008000ea02000090
:020000040000fa
:04008400ea0200008c
:020000040000fa
:04008800ea02000088
:020000040000fa
:04008c00ea02000084
:020000040000fa
:04009000ea02000080
:020000040000fa
:04009400ea0200007c
:020000040000fa
:04009800ea02000078
:020000040000fa
:04009c00ea02000074
:020000040000fa
:0400a000ea02000070
:020000040000fa
:0400a400ea0200006c
:020000040000fa
:0400a800ea02000068
:020000040000fa
:0400ac00ea02000064
:020000040000fa
:0400b000ea02000060
:020000040000fa
:0400b400ea0200005c
:020000040000fa
:0400b800ea02000058
:020000040000fa
:0400bc00ea02000054
:020000040000fa
:0400c000ea02000050
:020000040000fa
:0400c400ea0200004c
:020000040000fa
:0400c800ea02000048
:020000040000fa
:0400cc00ea02000044
:020000040000fa
:0400d000ea02000040
:020000040000fa
:0400d400ea0200003c
:020000040000fa
:0400d800ea02000038
:020000040000fa
:0400dc00ea02000034
:020000040000fa
:0400e000ea02000030
:020000040000fa
:0400e400ea0200002c
:020000040000fa
:0400e800ea02000028
:020000040000fa
:0400ec00ea02000024
:020000040000fa
:0400f000ea02000020
:020000040000fa
:0400f400ea0200001c
:020000040000fa
:0400f800ea02000018
:020000040000fa
:0400fc00ea02000014
:020000040000fa
:04010000ea0200000f
:020000040000fa
:04010400ea0200000b
:020000040000fa
:04010800ea02000007
:020000040000fa
:04010c00ea02000003
:020000040000fa
:04011000ea020000ff
:020000040000fa
:04011400ea020000fb
:020000040000fa
:04011800ea020000f7
:020000040000fa
:04011c00ea020000f3
:020000040000fa
:04012000ea020000ef
:020000040000fa
:04012400ea020000eb
:020000040000fa
:04012800ea020000e7
:020000040000fa
:04012c00ea020000e3
:020000040000fa
:04013000ea020000df
:020000040000fa
:04013400ea020000db
:020000040000fa
:04013800ea020000d7
:020000040000fa
:04013c00ea020000d3
:020000040000fa
:04014000ea020000cf
:020000040000fa
:04014400ea020000cb
:020000040000fa
:04014800ea020000c7
:020000040000fa
:04014c00ea020000c3
:020000040000fa
:04015000ea020000bf
:020000040000fa
:04015400ea020000bb
:020000040000fa
:04015800ea020000b7
:020000040000fa
:04015c00ea020000b3
:020000040000fa
:04016000ea020000af
:020000040000fa
:04016400ea020000ab
:020000040000fa
:04016800ea020000a7
:020000040000fa
:04016c00ea020000a3
:020000040000fa
:04017000ea0200009f
:020000040000fa
:04017400ea0200009b
:020000040000fa
:04017800ea02000097
:020000040000fa
:04017c00ea02000093
:020000040000fa
:04018000ea0200008f
:020000040000fa
:04018400ea0200008b
:020000040000fa
:04018800ea02000087
:020000040000fa
:04018c00ea02000083
:020000040000fa
:04019000ea0200007f
:020000040000fa
:04019400ea0200007b
:020000040000fa
:04019800ea02000077
:020000040000fa
:04019c00ea02000073
:020000040000fa
:0401a000ea0200006f
:020000040000fa
:0401a400ea0200006b
:020000040000fa
:0401a800ea02000067
:020000040000fa
:0401ac00ea02000063
:020000040000fa
:0401b000ea0200005f
:020000040000fa
:0401b400ea0200005b
:020000040000fa
:0401b800ea02000057
:020000040000fa
:0401bc00ea02000053
:020000040000fa
:0401c000ea0200004f
:020000040000fa
:0401c400ea0200004b
:020000040000fa
:0401c800ea02000047
:020000040000fa
:0401cc00ea02000043
:020000040000fa
:0401d000ea0200003f
:020000040000fa
:0401d400ea0200003b
:020000040000fa
:0401d800ea02000037
:020000040000fa
:0401dc00ea02000033
:020000040000fa
:0401e000ea0200002f
:020000040000fa
:0401e400ea0200002b
:020000040000fa
:0401e800ea02000027
:020000040000fa
:0401ec00ea02000023
:020000040000fa
:0401f000ea0200001f
:020000040000fa
:0401f400ea0200001b
:020000040000fa
:0401f800ea02000017
:020000040000fa
:0401fc00ea02000013
:020000040000fa
:10020000af8220000eff27000e01880000000000d2
:10021000000020000000e000020032000001200089
:100220002002880014000700ec0007000000e00036
:1002300003003a00e04620000100200002003700e1
:100240000000200001002000810f7000010032003a
:1002500014000700000020000000e000020032004f
:100260000000020000000000540402000000000032
:100270000040da000000fe004440a90020002000f9
:100280000000e00003003200100020009001880010
:100290004440a800000006008a1f78008b1f7800e9
:1002a00000000600a1028800800478000000eb0036
:1002b0001f003700e284440054a0b4009905ba003e
:1002c000e284440054a0b4009906ba00e2844400d9
:1002d00054a0b4000006eb00476fde00fd07b2003b
:1002e000ae018800636ce10003003a00eaff0700fa
:1002f0000000eb000e003700606ce10008003a00df
:10030000004deb000a05e800020039003420ec0043
:100310000af0a0008b05e900f9ff3e000400370059
:100320006168e100010032000086eb000b0007006d
:1003300019c7ba001905ba000e04e00003003a001c
:100340000a00e000dbff3a0000000600fe07b200f2
:10035000ae0288008a047800f5ff37000cd0a300b5
:10036000e20f4d001c00390089027800354dba00bb
:100370000a05e800020039003420ec000af0a00071
:100380008b05e9000f003200254dba000a05e80090
:10039000020039003420ec000af0a0008b05e900cf
:1003a000080032000c00e0000600320015cdba0053
:1003b0000a05e800020039003420ec000af0a00031
:1003c0008b05e9008984e80054a0b4000b00e0002c
:1003d000e2ff3a00000006009902ba00055d7800cd
:1003e0008b05e900f7ff3200c82ade00055d7800c2
:1003f0008b05e900f3ff32000c00e000f1ff320052
:1004000019ddba00eeff37004804040000000000c8
:100410003600f800809fbe00829fbe00849fbe0011
:10042000869fbe000000fa008020a9000000eb00bb
:100430003b0107000080fa004f03be004f02be00e0
:100440004f01be004f00be003600f900004006001c
:100450003600f800809fbe00829fbe00849fbe00d1
:10046000869fbe000000fa00340107008040a9000a
:10047000100020002a0107000080fa004f03be0090
:100480004f02be004f01be004f00be003600f90013
:10049000004006003600f800809fbe00829fbe002c
:1004a000849fbe00869fbe000000fa008060a90005
:1004b000200020001a0107000080fa004f03be0050
:1004c0004f02be004f01be004f00be003600f900d3
:1004d000004006003600f800809fbe00829fbe00ec
:1004e000849fbe00869fbe000000fa008080a900a5
:1004f000300020000a0107000080fa004f03be0010
:100500004f02be004f01be004f00be003600f90092
:10051000004006003600f800809fbe00829fbe00ab
:10052000849fbe00869fbe000000fa008600a900de
:1005300070002000fa0007000080fa004f03be00a0
:100540004f02be004f01be004f00be003600f90052
:10055000004006003600f800809fbe00829fbe006b
:10056000849fbe00869fbe003200f8003400f80071
:1005700010002000a00188001000200090018800d9
:100580000000fa00410480000000220000806000aa
:100590000000e00006003200404080000000e00063
:1005a00002003200404080000000010089a0a90044
:1005b0000080fa003400f9003200f9004f03be0059
:1005c0004f02be004f01be004f00be003600f900d2
:1005d000004006000040da000000fe0000000500b8
:020000040000fa
:1005e0000000fa0040002800303a88004827ef0059
:1005f00010002000503a88004c27ef004e27ef00f3
:100600005027ef005227ef005427ef005627ef0046
:100610005827ef005a27ef005c27ef005e27ef0016
:10062000f422ef00804420000600070099a0a800f3
:100630000080fa00000006000000fa000080fa00c6
:10064000000006000200fa00000f78001e0078008b
:10065000404088000080fa00000006000000fa0018
:100660004627a8000080fa00000006000000fa00fb
:100670004627a9000080fa00000006000800fa00e2
:10068000e600470080087800403a80004200de0023
:100690007f4060008080fb00640047000108780014
:1006a000217120000e80e800010878000000eb00b6
:1006b000000f78000f0037001e0078000000400097
:1006c000e600470091007800008040008e80e8003e
:1006d0009100780091007800010878000e80e80011
:1006e000100078008080e8000e80e80001087800a3
:1006f0001e0fe8009e00780064004700100078009c
:10070000808f5000ecff36001e0078000080fa0059
:10071000000006000000fa006626ef007a26ef00cf
:100720008e26ef00a226ef00b626ef00ca26ef00c5
:10073000de26ef00f06f2c00103388000080eb0005
:10074000b0338800e0012700503488000080eb00bf
:10075000f0348800f03f200090358800f01b230023
:1007600030368800f03c2f00d03688007426ef0029
:100770008826ef009c26ef00b026ef00c426ef008d
:10078000d826ef00ec26ef007226ef008626ef0059
:100790009a26ef00ae26ef00c226ef00d626ef0025
:1007a000ea26ef006826ef007c26ef009026ef0097
:1007b000a426ef00b826ef00cc26ef00e026ef00dd
:1007c000006c200050338800f0f32f00f0338800d5
:1007d0000001220090348800000c20003035880091
:1007e00000212000d0358800003c20001037880010
:1007f0000080fa00000006000000fa00000023005c
:10080000100888000621ef006821ef006a21ef0040
:100810000821ef0000702000500888000c21ef0034
:100820000e21ef007821ef007a21ef007c21ef000c
:100830007e21ef008021ef008221ef008421ef0074
:100840008621ef000001eb0080072000a1092000b5
:10085000131020008049780081497800824978008f
:100860000001eb006004200071052000031020004f
:100870008049780081497800824978000080fa0038
:10088000000006000000fa000080fa0000000600e8
:100890000000fa0004c8bf000004a20004e8b7008a
:1008a0000080fa00000006000200fa00f5ff0700d1
:1008b0000000eb00000f78004647a8000100370059
:1008c0000000000004c8bf00e14f5000fcff3a00e8
:0c08d0000e00780069ff0700faff3700f7
:020000040000fa
:1008dc000408000002000000800000000008000076
:1008ec0004000000800000000a0800002000000046
:1008fc0080000000060800000200000082000000da
:10090c00ffff00000808000002000000800000004b
:04091c0000000000d7
:020000040000fa
:100920000200fa00000f78009e0078003140880035
:100930000000fe000080fa00000006000000fa003f
:10094000a08020008007780020822000000188001d
:100950000080fa00000006000000fa007105800027
:10096000f0f82f00008060000040a00070058800b3
:100970000080fa0000000600809fbe00ec80570057
:1009800031007800004088001100780002e8b700cc
:100990004f00be00000006000000fa005dff0700e7
:1009a00095ff0700ecff07000dff07000080fa002d
:0409b000000006003d
:020000040000fa
:020000040015e5
:047e0000ffffff0081
:020000040000fa
:020000040015e5
:047e2000ff1f000040
:020000040000fa
:020000040015e5
:047e300078ffff00d8
:020000040000fa
:020000040015e5
:047e3800b7ffff0091
:020000040000fa
:020000040015e5
:047e40009fffff00a1
:020000040000fa
:020000040015e5
:047e4800ffffff0039
:020000040000fa
:020000040015e5
:047e5000deffff0052
:020000040000fa
:020000040015e5
:047e5800ffffff0029
:020000040000fa
:020000040100f9
:04300000ffffff00cf
:00000001FF
