:020000040000fa
:080000000001040000000000f3
:020000040000fa
:0400080008020000ea
:020000040000fa
:04000c004a020000a4
:020000040000fa
:040010008a02000060
:020000040000fa
:0400140028020000be
:020000040000fa
:040018006a02000078
:020000040000fa
:04001c00ea020000f4
:020000040000fa
:04002000ea020000f0
:020000040000fa
:04002400ea020000ec
:020000040000fa
:04002800ea020000e8
:020000040000fa
:04002c00ea020000e4
:020000040000fa
:04003000ea020000e0
:020000040000fa
:04003400ea020000dc
:020000040000fa
:04003800ea020000d8
:020000040000fa
:04003c00ea020000d4
:020000040000fa
:04004000ea020000d0
:020000040000fa
:04004400ea020000cc
:020000040000fa
:04004800ea020000c8
:020000040000fa
:04004c00ea020000c4
:020000040000fa
:04005000ea020000c0
:020000040000fa
:04005400ea020000bc
:020000040000fa
:04005800ea020000b8
:020000040000fa
:04005c00aa020000f4
:020000040000fa
:04006000ea020000b0
:020000040000fa
:04006400ea020000ac
:020000040000fa
:04006800ea020000a8
:020000040000fa
:04006c00ea020000a4
:020000040000fa
:04007000ea020000a0
:020000040000fa
:04007400ea0200009c
:020000040000fa
:04007800ea02000098
:020000040000fa
:04007c00ea02000094
:020000040000fa
:04008000ea02000090
:020000040000fa
:04008400ea0200008c
:020000040000fa
:04008800ea02000088
:020000040000fa
:04008c00ea02000084
:020000040000fa
:04009000ea02000080
:020000040000fa
:04009400ea0200007c
:020000040000fa
:04009800ea02000078
:020000040000fa
:04009c00ea02000074
:020000040000fa
:0400a000ea02000070
:020000040000fa
:0400a400ea0200006c
:020000040000fa
:0400a800ea02000068
:020000040000fa
:0400ac00ea02000064
:020000040000fa
:0400b000ea02000060
:020000040000fa
:0400b400ea0200005c
:020000040000fa
:0400b800ea02000058
:020000040000fa
:0400bc00ea02000054
:020000040000fa
:0400c000ea02000050
:020000040000fa
:0400c400ea0200004c
:020000040000fa
:0400c800ea02000048
:020000040000fa
:0400cc00ea02000044
:020000040000fa
:0400d000ea02000040
:020000040000fa
:0400d400ea0200003c
:020000040000fa
:0400d800ea02000038
:020000040000fa
:0400dc00ea02000034
:020000040000fa
:0400e000ea02000030
:020000040000fa
:0400e400ea0200002c
:020000040000fa
:0400e800ea02000028
:020000040000fa
:0400ec00ea02000024
:020000040000fa
:0400f000ea02000020
:020000040000fa
:0400f400ea0200001c
:020000040000fa
:0400f800ea02000018
:020000040000fa
:0400fc00ea02000014
:020000040000fa
:04010000ea0200000f
:020000040000fa
:04010400ea0200000b
:020000040000fa
:04010800ea02000007
:020000040000fa
:04010c00ea02000003
:020000040000fa
:04011000ea020000ff
:020000040000fa
:04011400ea020000fb
:020000040000fa
:04011800ea020000f7
:020000040000fa
:04011c00ea020000f3
:020000040000fa
:04012000ea020000ef
:020000040000fa
:04012400ea020000eb
:020000040000fa
:04012800ea020000e7
:020000040000fa
:04012c00ea020000e3
:020000040000fa
:04013000ea020000df
:020000040000fa
:04013400ea020000db
:020000040000fa
:04013800ea020000d7
:020000040000fa
:04013c00ea020000d3
:020000040000fa
:04014000ea020000cf
:020000040000fa
:04014400ea020000cb
:020000040000fa
:04014800ea020000c7
:020000040000fa
:04014c00ea020000c3
:020000040000fa
:04015000ea020000bf
:020000040000fa
:04015400ea020000bb
:020000040000fa
:04015800ea020000b7
:020000040000fa
:04015c00ea020000b3
:020000040000fa
:04016000ea020000af
:020000040000fa
:04016400ea020000ab
:020000040000fa
:04016800ea020000a7
:020000040000fa
:04016c00ea020000a3
:020000040000fa
:04017000ea0200009f
:020000040000fa
:04017400ea0200009b
:020000040000fa
:04017800ea02000097
:020000040000fa
:04017c00ea02000093
:020000040000fa
:04018000ea0200008f
:020000040000fa
:04018400ea0200008b
:020000040000fa
:04018800ea02000087
:020000040000fa
:04018c00ea02000083
:020000040000fa
:04019000ea0200007f
:020000040000fa
:04019400ea0200007b
:020000040000fa
:04019800ea02000077
:020000040000fa
:04019c00ea02000073
:020000040000fa
:0401a000ea0200006f
:020000040000fa
:0401a400ea0200006b
:020000040000fa
:0401a800ea02000067
:020000040000fa
:0401ac00ea02000063
:020000040000fa
:0401b000ea0200005f
:020000040000fa
:0401b400ea0200005b
:020000040000fa
:0401b800ea02000057
:020000040000fa
:0401bc00ea02000053
:020000040000fa
:0401c000ea0200004f
:020000040000fa
:0401c400ea0200004b
:020000040000fa
:0401c800ea02000047
:020000040000fa
:0401cc00ea02000043
:020000040000fa
:0401d000ea0200003f
:020000040000fa
:0401d400ea0200003b
:020000040000fa
:0401d800ea02000037
:020000040000fa
:0401dc00ea02000033
:020000040000fa
:0401e000ea0200002f
:020000040000fa
:0401e400ea0200002b
:020000040000fa
:0401e800ea02000027
:020000040000fa
:0401ec00ea02000023
:020000040000fa
:0401f000ea0200001f
:020000040000fa
:0401f400ea0200001b
:020000040000fa
:0401f800ea02000017
:020000040000fa
:0401fc00ea02000013
:020000040000fa
:10020000ef8220000eff27000e0188000000000092
:10021000000020000000e000020032000001200089
:100220002002880014000700ec0007000000e00036
:1002300003003a0020dc200001002000020037000b
:100240000000200001002000810f7000010032003a
:1002500014000700000020000000e000020032004f
:100260000000020000000000620d0200000000001b
:100270000040da000000fe004440a90020002000f9
:100280000000e00003003200100020009001880010
:100290004440a800000006008a1f78008b1f7800e9
:1002a00000000600a1028800800478000000eb0036
:1002b0001f003700e284440054a0b4009905ba003e
:1002c000e284440054a0b4009906ba00e2844400d9
:1002d00054a0b4000006eb00476fde00fd07b2003b
:1002e000ae018800636ce10003003a00eaff0700fa
:1002f0000000eb000e003700606ce10008003a00df
:10030000004deb000a05e800020039003420ec0043
:100310000af0a0008b05e900f9ff3e000400370059
:100320006168e100010032000086eb000b0007006d
:1003300019c7ba001905ba000e04e00003003a001c
:100340000a00e000dbff3a0000000600fe07b200f2
:10035000ae0288008a047800f5ff37000cd0a300b5
:10036000e20f4d001c00390089027800354dba00bb
:100370000a05e800020039003420ec000af0a00071
:100380008b05e9000f003200254dba000a05e80090
:10039000020039003420ec000af0a0008b05e900cf
:1003a000080032000c00e0000600320015cdba0053
:1003b0000a05e800020039003420ec000af0a00031
:1003c0008b05e9008984e80054a0b4000b00e0002c
:1003d000e2ff3a00000006009902ba00055d7800cd
:1003e0008b05e900f7ff3200c82ade00055d7800c2
:1003f0008b05e900f3ff32000c00e000f1ff320052
:1004000019ddba00eeff37000c0d040000000000fb
:100410003600f800809fbe00829fbe00849fbe0011
:10042000869fbe000000fa008020a9000000eb00bb
:10043000eb0507000080fa004f03be004f02be002c
:100440004f01be004f00be003600f900004006001c
:100450003600f800809fbe00829fbe00849fbe00d1
:10046000869fbe000000fa00e40507008040a90056
:1004700010002000da0507000080fa004f03be00dc
:100480004f02be004f01be004f00be003600f90013
:10049000004006003600f800809fbe00829fbe002c
:1004a000849fbe00869fbe000000fa008060a90005
:1004b00020002000ca0507000080fa004f03be009c
:1004c0004f02be004f01be004f00be003600f900d3
:1004d000004006003600f800809fbe00829fbe00ec
:1004e000849fbe00869fbe000000fa008080a900a5
:1004f00030002000ba0507000080fa004f03be005c
:100500004f02be004f01be004f00be003600f90092
:10051000004006003600f800809fbe00829fbe00ab
:10052000849fbe00869fbe000000fa008600a900de
:1005300070002000aa0507000080fa004f03be00eb
:100540004f02be004f01be004f00be003600f90052
:10055000004006003600f800809fbe00829fbe006b
:10056000849fbe00869fbe003200f8003400f80071
:1005700010002000a00188001000200090018800d9
:100580000000fa00410480000000220000806000aa
:100590000000e00006003200504080000000e00053
:1005a00002003200504080000000010089a0a90034
:1005b0000080fa003400f9003200f9004f03be0059
:1005c0004f02be004f01be004f00be003600f900d2
:1005d000004006000040da000000fe0000000500b8
:1005e0000001be001b0007000470a70003f0a1007b
:1005f00003f8a30013003a006509b10010003200af
:10060000090035006928e1000200350001002800da
:100610000000050000004000818048008502e900dc
:10062000fcff3a0000000600f88f4200050035008c
:100630008100d1000080d3008502e800fcff3a0071
:10064000000006008000eb00000005006011b8000b
:100650006a033700c70ade00f107b200f50fb200e7
:1006600008003200e1cf4200020032000170a00019
:1006700024000500810f700001003200040805000d
:1006800044000500810f700002003a0014000500cc
:100690008502e9000000400081c04800fcff3b00eb
:1006a0000170a0002400050007f8270007836100ff
:1006b0000638e10004003a00f70720008783610054
:1006c0008703710001003a0003f0a200889fbe007a
:1006d0008a9fbe008c9fbe00470ade000480a100f6
:1006e000c71ade000580a10007002800078560000a
:1006f00087856100f70f20000720e1009e0032008f
:100700000728e1009c003200010678000400e000a8
:10071000b4003200f7072000878060000170a0005d
:100720000500e000c0003200f7072000878161006b
:100730000370a000050652000f003a000b50e100c4
:100740000b0032000308e10002003a000200e10061
:100750007e003200020450008384580004003100ff
:100760000001fd008101fd008402fd008a05fd00fd
:100770006044b800210037000520e10005003d007d
:100780000001fd008101fd008402fd008a05fd00dd
:10079000050652007a60e100050035000170a100f5
:1007a0004722dd00848070008a807000630037007b
:1007b0006044b800ef02660007ff2f0007066600de
:1007c0000500e00006003400f08312008714dd000d
:1007d0000511de00071bdd00060171008519de0032
:1007e0007060e1000500350009047800820478009b
:1007f000030178008001eb00700656000b50e10009
:1008000003003a00020040008380480004003700e3
:1008100060041400e0841c0002005800838058002b
:100820000188a300060032008100d1000080d300bf
:100830008984d3000884d3000402e800270037002d
:100840000178a30025003a000100e0000300320017
:100850008186cf00698656000a0037008c00200090
:100860000000e00004003a000900780088047800e5
:100870000004eb00700252008086cf000d06460097
:100880000c06e9007060e100060035008000780089
:1008900009007800880478000004eb007006560018
:1008a000700252000c00e0000c0034008c08dd00e7
:1008b000f00316000703de00868070000c00dd00e8
:1008c000074bde00060070008c4cdd000743de00a5
:1008d000868474000c44dd000c0252006120e100ab
:1008e0002000350061016000070028008781640056
:1008f000f7ff270087836400070374000300e0000c
:100900000600320082037300040032000000e80099
:10091000e08048000188a3000e003a00f70f200095
:100920000720e1004a003d000170a1004722dd00e0
:10093000810072008a8070000000be004f06be0079
:100940004f05be004f04be00000006006000b80066
:10095000faff37008100d1000080d3000402e800d4
:10096000eeff37000401780089017400a10107003f
:100970008a807000f1ff3700f70107000702780056
:100980000001fd008101fd00f301070087027800ee
:10099000850372000778a300040032000001fd0007
:1009a0008101fd0006020700e4ff370085036200b5
:1009b0000768a300080032000b50e100030032007a
:1009c000f0ff2f00f1ff2700dcff37000001fd00e2
:1009d0008101fd00d9ff37000468a300d7ff320072
:1009e000faff3700f8ff2700888360000b003a0009
:1009f0000000e00009003a00830364008283730072
:100a0000020032000200be00ccff37000b50e100b4
:100a1000ceff3a000200be00c8ff370014002000dd
:100a2000810064003eff3700f8ff270088836100e3
:100a300004003a000200e00002003a008c00780056
:100a4000beff3700150020008301640039ff370026
:100a500001f827000000200081007500b7ff370073
:100a6000889fbe008a9fbe008c9fbe001b00200096
:100a70000202be0005866800060028000606660021
:100a80004709de00f20fb200820032000243e800a4
:100a900080003200c729de00f30fb2007d00320073
:100aa0000343e8007b003200f107b2000170a000b0
:100ab000f507b2000570a000c708dd004903de009d
:100ac000868070004700dd00c72add004923de0074
:100ad000868272004722dd000305510004035000a6
:100ae00085835800030031000000400081804800e9
:100af0000a05e9008c1f78008a9fbe0004005000a0
:100b0000858058000402420085824a0000004000af
:100b1000818048000005eb000004be006033b8008f
:100b20000406be000d48e100560031001100090026
:100b30004dccd8000c01b8000d02b80084814100f2
:100b400060824a008283530003045c0084845c005a
:100b500060055d000a00e00025003a00800578008d
:100b60000d40e1004900310088007800070078005e
:100b7000110009004d88d8000c01b8000d02b80022
:100b80008481410060824a006003110083835b001e
:100b900004045c00e0845c000900e00021003a00ed
:100ba0004f01be000300e0002b003200e3016000b3
:100bb000070673008c817100010032006400700030
:100bc0004200de004e5edd000c007000c258de0008
:100bd00001e0a00083010700cf017800818071004f
:100be0004f06be004f05be004f04be0000000600c9
:100bf0008c8343000d044c00e0844c0060054d00e4
:100c00000000e9000a00e000d4ff32008c834300ba
:100c10000d044c00e0844c0060054d000000e9002c
:100c2000ceff37000c0343008d834b0060044c0063
:100c3000e0844c000000e9000900e000d8ff320029
:100c40000c0343008d834b0060044c00e0844c0097
:100c50000000e900d2ff37004200de004e5edd00fa
:100c60000c007000c258de0001e0a000cf01780047
:100c70000300e000daff320060001000e08018009e
:100c8000d7ff3700f0ff2f00aaff3700f0ff2f003b
:100c9000b9ff37000404be002f0107008706780063
:100ca0000004fd008104fd002b010700078366009e
:100cb0000678a300030032000960a7000800be0008
:100cc0002c0037000d78a300020032000800be009f
:100cd000280037000778a30026003a0001f0a100a1
:100ce00009f0a1000668a30003003200f1ff27000d
:100cf000f0ff2f00baff37000d68a3000300320099
:100d00000800be008c807000b5ff37000768a300a4
:100d100007003a000648a30003003200f1ff270055
:100d2000f0ff2f00aeff37000d48a3000300320094
:100d30006000b8008c807000a9ff37000748a3004e
:100d40000400320001f82700000020008c807000b1
:100d5000a3ff3700760107000004fd008104fd00b9
:100d600002057800720107000802be008a017800bf
:100d700059ff37000160a000120220006240880085
:100d800097ff37000100e000120032000500e0008c
:100d900010003200889fbe008a9fbe008c9fbe005c
:100da0000006eb0001f8a300030032006000100011
:100db000e08018000cf0a00005f8a300030032004a
:100dc00060021200e0821a000cf0a2008005eb0025
:100dd00041ff37006000b80002000500038368008f
:100de0000700280007036300470ade000480a10013
:100df000c71ade000580a100f70f20000720e100e0
:100e0000420032000728e10040003200889fbe0007
:100e10008a9fbe008c1f7800f107b200f307b20072
:100e20000400e000640032000170a0000500e00052
:100e3000680032000370a00085054200eb07b10096
:100e40000204b8000302b8008484440060854a00ac
:100e5000020ab800848444000a854a00030ab800e4
:100e600004054500040033000804d0008984d20042
:100e70000a85d2008b05e9006158e1003d0035008c
:100e8000021020000901610003082000898161002f
:100e9000f70720008783640008867300c84cde00d3
:100ea000c853dd00878474004855de000300e0006d
:100eb0000600320082037600040032008904e80054
:100ec00060054d000a88a3000c003a00f70f2000cf
:100ed0000758e10044003d000a70a100c75ddd0035
:100ee0000a8575008a007300090078004f067800b3
:100ef0004f05be004f04be00000006000a05d100e9
:100f00008984d3008b05e800f0ff3700881f780044
:100f10000604780090000700070278000001fd0039
:100f20008101fd008c0007008702780085037200b4
:100f30000778a300050032000001fd008101fd00db
:100f40009f0007004f047800000006008503720030
:100f50000748a30003003200f0ff2f00f1ff270035
:100f6000f8ff37000000200001f82700888070009b
:100f7000f4ff3700880178004848dd008081710067
:100f80004848de00c850dd0001007000c850de0097
:100f9000060478000b0178001600070088807000b6
:100fa000d2ff37000500e0000500320017002000e6
:100fb0003a0007009dff370081037000f9ff3a00f7
:100fc000860078004f0678004f05be004f04be0033
:100fd0000000050083037100f9ff320027002000a4
:100fe0002e00070094ff370001f82700868070006c
:100ff000f4ff37000100e00026003200610111001b
:101000007810e10023003c006022b8007010e1007d
:101010000400350080027800010078008000eb00b9
:10102000700151000200e00009003400700311005b
:10103000062add00822ade008603dd008782720038
:101040000200de00860bdd00070070008208de0073
:1010500084817100f4ff27000482620084817100a2
:1010600004002800848262006102600005f0a6008e
:101070000000060004827100070032000000e80052
:10108000e0804800000006000002be006000b800da
:10109000efff37006000b80000000600889fbe0028
:1010a0000004eb006138e10016003a000100e000a6
:1010b00008003a00c800de004800dd00880020007b
:1010c0000100e00003003a00c800de004800dd0037
:1010d000680444008184cf00e98454000600340091
:1010e0008908dd00f08314008703de00878070002c
:1010f0000900dd0009044400610214004f04be0031
:10110000000006000300e00008003a00c811de00fd
:101110004811dd00880020000300e00003003a00d1
:10112000c811de004811dd00680444008384cf004c
:10113000e9845400060034008919dd00f0831400ae
:101140008713de00878171000911dd000904440066
:10115000e1021400e9ff37002700200001f0a7009a
:1011600017002000470bde00f60fb200040032002b
:101170000643e8000a0032004702b3000000060000
:1011800001037800f607b2000603700002003a007f
:101190000703b300000006008702b300000006004a
:1011a00001037800f607b200060370000200320067
:1011b0000770a000000006000760a0000000060005
:1011c0000478a300040032000578a3000300320075
:1011d0000168a30001003a000200be000160a00007
:1011e0000000060081017000270032008002eb0041
:1011f00001f8a3000300320060001000e080180036
:1012000015002000f40720000202420020003400f4
:10121000f70320008703600006042000000363003a
:1012200002082000000161004700de00c909dd005e
:1012300000807100c708de000600e00008003200f0
:1012400087037100060032001000b0000180b0007a
:101250000188a30002003200c108de000402e80099
:10126000f107b200f30f20000320e10003003d006e
:101270004722dd00810072002900370001f82700b5
:101280000000eb00260037006000b80000000600f8
:10129000680212007f20e100020034006000b80004
:1012a0001f0037006011b8007020e1000400350015
:1012b00080017800010078008000eb00700252008d
:1012c0000400e00009003400f00312000719dd00fb
:1012d0008419de000703dd00868171000400de0052
:1012e000070bdd00060070008408de00f7ff270012
:1012f00083836300870371000600280003036300f3
:10130000070032000700e00003003a0061016000be
:1013100002817300020032001000b0000180b000b2
:101320000500a6000000060001f0a0000000060075
:101330004f0ade004709de00f107b200f20fb200eb
:101340000b003200f207b1000170a000c708dd00f9
:10135000c901de00838070004700dd000400a600a4
:101360000000060060001000e08018000000060089
:10137000810f700001003a00000006008182cf005a
:101380000500e00010003e008082cf00ee824200a7
:101390007028e1000400390007003e00800078005a
:1013a0000000eb000e003700708312008600de00a4
:1013b0000500dd000a003700708352008600dd0062
:1013c0000000eb0006003700e28252008508dd00d5
:1013d000708312000603de00868070000500dd00c9
:1013e0007507b0000501ea000400a6000000060031
:1013f00060001000e080180000000600889fbe001a
:101400008a9fbe0000827000040271000482710095
:10141000260032000004be000200be006011b800c9
:101420006b092000950220000182cf000a003900dc
:101430000541b1000082cf00070039000541b1002d
:101440000982cf00040039000541b1000882cf00b5
:10145000010039000541b10005425200120032007e
:101460000a003b0082817100610164008100d100ab
:101470000080d3008984d3000884d3008b05e80062
:101480000442e800f7ff3a00070037000804440070
:1014900089844c0000004800818048008b05e900e9
:1014a0000442e900f9ff3a00030007004f05be00bf
:1014b0004f04be000000060081002000618055003e
:1014c0000b003d000b00200061fe2f000100e10039
:1014d0001d00340082817100610164008904d10023
:1014e0000884d3000000e800faff3a0071002000f1
:1014f0006100640003007000020060000900320017
:1015000061044400e0844c000988a5000500320015
:101510008b05e8006808e10002003a008904d10068
:101520000884d300f20f20000258e10005003d00be
:10153000c75ddd00f907b2008980750008007800fa
:10154000000006000bf827008b0078000000050063
:020000040000fa
:101550000000fa0060c0210080118800f001200026
:101560009011880040512000a0118800a028200080
:10157000b011880080118000004078006740600052
:101580000080fb00204088000080fa000000060078
:101590000000fa000080fa00000006000000fa00d7
:1015a00040048000640060000000e000020032009f
:1015b000f7ff07008840a9000080fa00000006003d
:1015c0000000fa0020408000004078006740600082
:1015d0000080fb00670060008211800081ff2f0007
:1015e0008100610001007000801188000080fa0015
:1015f000000006000000fa008111800080ff2f002b
:1016000000806000801188000080fa000000060061
:101610000200fa00000f78009e007800a1118800f7
:101620000080fa00000006000200fa00000f7800b7
:101630009e007800b11188000080fa0000000600ca
:101640000000fa00400480004200de0061406000bb
:101650000080fb0000f0a7000000ea000000ea00a4
:101660004f00de00004078000080fa000000060015
:101670000400fa00100798001e009000e10f5000cf
:101680000f003200e10f500003003900e20f50005c
:10169000150032001e003700801180004400de007b
:1016a000614060000080fb0000f0a7000000ea003d
:1016b0000000ea004f00de00004f78001400370001
:1016c000801180004500de00614060000080fb006a
:1016d00000f0a7000000ea000000ea004f00de0072
:1016e000004f78000a003700801180004600de00bd
:1016f000614060000080fb0000f0a7000000ea00ed
:101700000000ea004f00de00004f780000000000fb
:101710001e4078000080fa00000006000200fa0077
:10172000000f78001e007800e10f50000700320023
:10173000e10f500003003900e20f500005003200b5
:10174000060037003082a9000400370030a2a9004b
:101750000200370030c2a900000000000080fa003b
:10176000000006000000fa0032c2a8000080fa0063
:10177000000006000000fa00901180004600de0024
:10178000614060000080fb0000f0a7000000ea005c
:101790000000ea004f00de00004078000080fa0000
:1017a000000006000000fa0032c2a9000080fa0022
:1017b000000006000000fa006626ef007a26ef001f
:1017c0008e26ef00a226ef00b626ef00ca26ef0015
:1017d000de26ef00f06f2c0010338800f0bf2f00e2
:1017e000b0338800e001270050348800e0ff2f006c
:1017f000f0348800f03f200090358800f01b230073
:1018000030368800f03c2f00d03688007426ef0078
:101810008826ef009c26ef00b026ef00c426ef00dc
:10182000d826ef00ec26ef007226ef008626ef00a8
:101830009a26ef00ae26ef00c226ef00d626ef0074
:10184000ea26ef006826ef007c26ef009026ef00e6
:10185000a426ef00b826ef00cc26ef00e026ef002c
:10186000006c200050338800f0f32f00f033880024
:101870000001220090348800000c200030358800e0
:1018800000212000d0358800003c2000103788005f
:1018900001088000f00b200000816000600420003f
:1018a00071052000031020008049780081497800ec
:1018b00082497800f13e8000f00f280080806000af
:1018c00000d0200001007000f03e88000008800079
:1018d000000178000260a000600420007105200073
:1018e00003102000804978008149780082497800ff
:1018f0000080fa00000006000000fa0040072800ff
:10190000303a880040c02000403a8800f0f02100c2
:10191000503a88004c27ef0000302700703a8800ca
:10192000c0002000803a88005227ef005427ef00c3
:101930005627ef005827ef005a27ef005c27ef00eb
:101940005e27ef00f422ef00c0d020000600070061
:1019500099a0a8000080fa00000006000000fa002c
:101960000080fa00000006000200fa00000f780074
:101970001e007800504088000080fa000000060039
:101980000000fa004627a8000080fa0000000600c8
:101990000000fa004627a9000080fa0000000600b7
:1019a0000800fa0030079800403a80004200de004c
:1019b0007f4060000080fb0020079800207120001d
:1019c000100798000000eb00000f78000b003700b4
:1019d0001e00780000004000be0090000080400023
:1019e0009e00900091007800010878001e00900091
:1019f0000080e800100798001e0fe8009e007800a5
:101a00002e009000808f5000f1ff36001e007800fd
:101a10000080fa00000006000000fa00304080005c
:101a20000000a200304088000080fa00000006009c
:101a30000800fa00889fbe00200798003107980030
:101a40002e0090007300b9000000780001e224002d
:101a5000008f50009e007800a11188003e00900089
:101a60008000eb00f9fa07003233230033f723003c
:101a7000dafc07000004be001e0078008000eb00c6
:101a8000f2fa07000001be000800be00d3fc070008
:101a90000200200003482400f1fb070002002000a0
:101aa000832c240000fb0700cdfa070010079800e4
:101ab0009e009000b11188004f04be000080fa0023
:101ac000000006000000fa005b000700bcfe0700f3
:101ad0000100370000000000304080000000e000fe
:101ae000fcff3200c1388000b0388000d0ff070012
:101af0000628ef00f8ff37000000fa00000023007e
:101b0000100888000621ef006821ef006a21ef002d
:101b10000821ef0000702000500888000c21ef0021
:101b20000e21ef007821ef007a21ef007c21ef00f9
:101b30007e21ef008021ef008221ef008421ef0061
:101b40008621ef000001eb0080072000a1092000a2
:101b5000131020008049780081497800824978007c
:101b60000001eb006004200071052000031020003c
:101b70008049780081497800824978000080fa0025
:041b8000000006005b
:020000040000fa
:101b840004080000020000008000000006080000b5
:101b940002000000800000000e0800002000000089
:101ba400800000000808000002000000820000001d
:101bb400ffff000000080000040000008000000097
:101bc4000a08000002000000800000000c08000069
:0c1bd40002000000800000000000000083
:020000040000fa
:101be0000200fa00000f78009e0078004140880053
:101bf0000000fe000080fa00000006000000fa006d
:101c0000e0802000800778006082200000018800ca
:101c10000080fa00000006000000fa007105800054
:101c2000f0f82f00008060000040a00070058800e0
:101c30000080fa00000006000000fa00ddfe070048
:101c4000f5ff0700acff07002bff070040fe070071
:101c50000080fa0000000600809fbe00ec80570064
:101c600031007800004088001100780002e8b700d9
:081c70004f00be000000060059
:020000040000fa
:020000040015e5
:047e0000ffffff0081
:020000040000fa
:020000040015e5
:047e2000ff1f000040
:020000040000fa
:020000040015e5
:047e300078ffff00d8
:020000040000fa
:020000040015e5
:047e3800a3ffff00a5
:020000040000fa
:020000040015e5
:047e40009fffff00a1
:020000040000fa
:020000040015e5
:047e4800ffffff0039
:020000040000fa
:020000040015e5
:047e5000deffff0052
:020000040000fa
:020000040015e5
:047e5800ffffff0029
:020000040000fa
:020000040100f9
:04300000ffffff00cf
:00000001FF
