:020000040000fa
:080000000001040000000000f3
:020000040000fa
:0400080004020000ee
:020000040000fa
:04000c0046020000a8
:020000040000fa
:040010008602000064
:020000040000fa
:0400140024020000c2
:020000040000fa
:04001800660200007c
:020000040000fa
:04001c00a602000038
:020000040000fa
:04002000a602000034
:020000040000fa
:04002400a602000030
:020000040000fa
:04002800a60200002c
:020000040000fa
:04002c00a602000028
:020000040000fa
:04003000a602000024
:020000040000fa
:04003400a602000020
:020000040000fa
:04003800a60200001c
:020000040000fa
:04003c00a602000018
:020000040000fa
:04004000a602000014
:020000040000fa
:04004400a602000010
:020000040000fa
:04004800a60200000c
:020000040000fa
:04004c00a602000008
:020000040000fa
:04005000a602000004
:020000040000fa
:04005400a602000000
:020000040000fa
:04005800a6020000fc
:020000040000fa
:04005c00a6020000f8
:020000040000fa
:04006000a6020000f4
:020000040000fa
:04006400a6020000f0
:020000040000fa
:04006800a6020000ec
:020000040000fa
:04006c00a6020000e8
:020000040000fa
:04007000a6020000e4
:020000040000fa
:04007400a6020000e0
:020000040000fa
:04007800a6020000dc
:020000040000fa
:04007c00a6020000d8
:020000040000fa
:04008000a6020000d4
:020000040000fa
:04008400a6020000d0
:020000040000fa
:04008800a6020000cc
:020000040000fa
:04008c00a6020000c8
:020000040000fa
:04009000a6020000c4
:020000040000fa
:04009400a6020000c0
:020000040000fa
:04009800a6020000bc
:020000040000fa
:04009c00a6020000b8
:020000040000fa
:0400a000a6020000b4
:020000040000fa
:0400a400a6020000b0
:020000040000fa
:0400a800a6020000ac
:020000040000fa
:0400ac00a6020000a8
:020000040000fa
:0400b000a6020000a4
:020000040000fa
:0400b400a6020000a0
:020000040000fa
:0400b800a60200009c
:020000040000fa
:0400bc00a602000098
:020000040000fa
:0400c000a602000094
:020000040000fa
:0400c400a602000090
:020000040000fa
:0400c800a60200008c
:020000040000fa
:0400cc00a602000088
:020000040000fa
:0400d000a602000084
:020000040000fa
:0400d400a602000080
:020000040000fa
:0400d800a60200007c
:020000040000fa
:0400dc00a602000078
:020000040000fa
:0400e000a602000074
:020000040000fa
:0400e400a602000070
:020000040000fa
:0400e800a60200006c
:020000040000fa
:0400ec00a602000068
:020000040000fa
:0400f000a602000064
:020000040000fa
:0400f400a602000060
:020000040000fa
:0400f800a60200005c
:020000040000fa
:0400fc00a602000058
:020000040000fa
:04010000a602000053
:020000040000fa
:04010400a60200004f
:020000040000fa
:04010800a60200004b
:020000040000fa
:04010c00a602000047
:020000040000fa
:04011000a602000043
:020000040000fa
:04011400a60200003f
:020000040000fa
:04011800a60200003b
:020000040000fa
:04011c00a602000037
:020000040000fa
:04012000a602000033
:020000040000fa
:04012400a60200002f
:020000040000fa
:04012800a60200002b
:020000040000fa
:04012c00a602000027
:020000040000fa
:04013000a602000023
:020000040000fa
:04013400a60200001f
:020000040000fa
:04013800a60200001b
:020000040000fa
:04013c00a602000017
:020000040000fa
:04014000a602000013
:020000040000fa
:04014400a60200000f
:020000040000fa
:04014800a60200000b
:020000040000fa
:04014c00a602000007
:020000040000fa
:04015000a602000003
:020000040000fa
:04015400a6020000ff
:020000040000fa
:04015800a6020000fb
:020000040000fa
:04015c00a6020000f7
:020000040000fa
:04016000a6020000f3
:020000040000fa
:04016400a6020000ef
:020000040000fa
:04016800a6020000eb
:020000040000fa
:04016c00a6020000e7
:020000040000fa
:04017000a6020000e3
:020000040000fa
:04017400a6020000df
:020000040000fa
:04017800a6020000db
:020000040000fa
:04017c00a6020000d7
:020000040000fa
:04018000a6020000d3
:020000040000fa
:04018400a6020000cf
:020000040000fa
:04018800a6020000cb
:020000040000fa
:04018c00a6020000c7
:020000040000fa
:04019000a6020000c3
:020000040000fa
:04019400a6020000bf
:020000040000fa
:04019800a6020000bb
:020000040000fa
:04019c00a6020000b7
:020000040000fa
:0401a000a6020000b3
:020000040000fa
:0401a400a6020000af
:020000040000fa
:0401a800a6020000ab
:020000040000fa
:0401ac00a6020000a7
:020000040000fa
:0401b000a6020000a3
:020000040000fa
:0401b400a60200009f
:020000040000fa
:0401b800a60200009b
:020000040000fa
:0401bc00a602000097
:020000040000fa
:0401c000a602000093
:020000040000fa
:0401c400a60200008f
:020000040000fa
:0401c800a60200008b
:020000040000fa
:0401cc00a602000087
:020000040000fa
:0401d000a602000083
:020000040000fa
:0401d400a60200007f
:020000040000fa
:0401d800a60200007b
:020000040000fa
:0401dc00a602000077
:020000040000fa
:0401e000a602000073
:020000040000fa
:0401e400a60200006f
:020000040000fa
:0401e800a60200006b
:020000040000fa
:0401ec00a602000067
:020000040000fa
:0401f000a602000063
:020000040000fa
:0401f400a60200005f
:020000040000fa
:0401f800a60200005b
:020000040000fa
:0401fc00a602000057
:020000040000fa
:100200008f8220000eff27000e01880000000000f2
:10021000000020000000e000020032000001200089
:100220002002880014000700ca0007000000e00058
:1002300003003a00204e2000010020000200370099
:100240000000200001002000810f7000010032003a
:1002500014000700000020000000e000020032004f
:1002600000000200000000001c0502000000000069
:100270000040da000000fe004440a90020002000f9
:100280000000e00003003200100020009001880010
:100290004440a800000006008a1f78008b1f7800e9
:1002a00000000600a1028800800478000000eb0036
:1002b0001f003700e284440054a0b4009905ba003e
:1002c000e284440054a0b4009906ba00e2844400d9
:1002d00054a0b4000006eb00476fde00fd07b2003b
:1002e000ae018800636ce10003003a00eaff0700fa
:1002f0000000eb000e003700606ce10008003a00df
:10030000004deb000a05e800020039003420ec0043
:100310000af0a0008b05e900f9ff3e000400370059
:100320006168e100010032000086eb000b0007006d
:1003300019c7ba001905ba000e04e00003003a001c
:100340000a00e000dbff3a0000000600fe07b200f2
:10035000ae0288008a047800f5ff37000cd0a300b5
:10036000e20f4d001c00390089027800354dba00bb
:100370000a05e800020039003420ec000af0a00071
:100380008b05e9000f003200254dba000a05e80090
:10039000020039003420ec000af0a0008b05e900cf
:1003a000080032000c00e0000600320015cdba0053
:1003b0000a05e800020039003420ec000af0a00031
:1003c0008b05e9008984e80054a0b4000b00e0002c
:1003d000e2ff3a00000006009902ba00055d7800cd
:1003e0008b05e900f7ff3200c82ade00055d7800c2
:1003f0008b05e900f3ff32000c00e000f1ff320052
:1004000019ddba00eeff37003600f800809fbe000d
:10041000829fbe00849fbe00869fbe000000fa003f
:100420008020a9000000eb00580107000080fa00be
:100430004f03be004f02be004f01be004f00be0082
:100440003600f900004006003600f800809fbe002c
:10045000829fbe00849fbe00869fbe000000fa00ff
:10046000510107008040a90010002000470107004b
:100470000080fa004f03be004f02be004f01be00d5
:100480004f00be003600f900004006003600f800bc
:10049000809fbe00829fbe00849fbe00869fbe00dc
:1004a0000000fa008060a90020002000370107004a
:1004b0000080fa004f03be004f02be004f01be0095
:1004c0004f00be003600f900004006003600f8007c
:1004d000809fbe00829fbe00849fbe00869fbe009c
:1004e0000000fa008080a9003000200027010700ea
:1004f0000080fa004f03be004f02be004f01be0055
:100500004f00be003600f900004006003600f8003b
:10051000809fbe00829fbe00849fbe00869fbe005b
:100520000000fa008600a9007000200017010700f3
:100530000080fa004f03be004f02be004f01be0014
:100540004f00be003600f900004006000040da000f
:080550000000fe0000000500a0
:020000040000fa
:100558000000fa0060c0210080118800f00120002e
:100568009011880000fa2000a011880020032000c4
:10057800b01188008011800000407800674060005a
:100588000080fb00304088000080fa000000060070
:100598000000fa000080fa00000006000000fa00df
:1005a80040048000640060000000e00002003200a7
:1005b800f7ff07008840a9000080fa000000060045
:1005c8000000fa003040800000407800674060007a
:1005d8000080fb00670060008211800081ff2f000f
:1005e8008100610001007000801188000080fa001d
:1005f800000006000000fa008111800080ff2f0033
:1006080000806000801188000080fa000000060069
:100618000200fa00000f78009e007800a1118800ff
:100628000080fa00000006000200fa00000f7800bf
:100638009e007800b11188000080fa0000000600d2
:100648000000fa00400480004200de0061406000c3
:100658000080fb0000f0a7000000ea000000ea00ac
:100668004f00de00004078000080fa00000006001d
:100678000400fa00100798001e009000e10f5000d7
:100688000f003200e10f500003003900e20f500064
:10069800150032001e003700801180004400de0083
:1006a800614060000080fb0000f0a7000000ea0045
:1006b8000000ea004f00de00004f78001400370009
:1006c800801180004500de00614060000080fb0072
:1006d80000f0a7000000ea000000ea004f00de007a
:1006e800004f78000a003700801180004600de00c5
:1006f800614060000080fb0000f0a7000000ea00f5
:100708000000ea004f00de00004f78000000000003
:100718001e4078000080fa00000006000200fa007f
:10072800000f78001e007800e10f5000070032002b
:10073800e10f500003003900e20f500005003200bd
:10074800060037003082a9000400370030a2a90053
:100758000200370030c2a900000000000080fa0043
:10076800000006000000fa0032c2a8000080fa006b
:10077800000006000000fa00901180004600de002c
:10078800614060000080fb0000f0a7000000ea0064
:100798000000ea004f00de00004078000080fa0008
:1007a800000006000000fa0032c2a9000080fa002a
:1007b800000006000000fa006626ef007a26ef0027
:1007c8008e26ef00a226ef00b626ef00ca26ef001d
:1007d800de26ef00f06f2c00103388000080eb005d
:1007e800b0338800e001270050348800e0ff2f0074
:1007f800f0348800f03f200090358800f01b23007b
:1008080030368800f03c2f00d03688007426ef0080
:100818008826ef009c26ef00b026ef00c426ef00e4
:10082800d826ef00ec26ef007226ef008626ef00b0
:100838009a26ef00ae26ef00c226ef00d626ef007c
:10084800ea26ef006826ef007c26ef009026ef00ee
:10085800a426ef00b826ef00cc26ef00e026ef0034
:10086800006c200050338800c0ff2f00f033880050
:100878000001220090348800000c200030358800e8
:1008880000212000d0358800003c20001037880067
:1008980001088000f00b2000008160006004200047
:1008a80071052000031020008049780081497800f4
:1008b80082497800f13e8000f00f280080806000b7
:1008c80000d0200001007000f03e88000008800081
:1008d800000178000260a00060042000710520007b
:1008e8000310200080497800814978008249780007
:1008f8000080fa00000006000000fa000000230053
:10090800100888000621ef006821ef006a21ef0037
:100918000821ef0000702000500888000c21ef002b
:100928000e21ef007821ef007a21ef007c21ef0003
:100938007e21ef008021ef008221ef008421ef006b
:100948008621ef000001eb0080072000a1092000ac
:100958001310200080497800814978008249780086
:100968000001eb0060042000710520000310200046
:100978008049780081497800824978000080fa002f
:10098800000006000200fa00000f78009e007800c0
:10099800214088000000fe000080fa0000000600e8
:1009a8000000fa0080802000800778000082200084
:0c09b800000188000080fa00000006002a
:020000040000fa
:1009c4000008000004000000800000000808000087
:1009d4002000000080000000040800000200000065
:1009e40082000000ffff0000060800000200000073
:0809f40080000000000000007b
:020000040000fa
:1009fc00809fbe00ec8057003100780000408800da
:100a0c001100780002e8b7004f00be00000006009d
:100a1c000000fa0066ff0700b6ff0700060007009b
:100a2c00cafe07000080fa00000006000000fa0071
:100a3c00f7ff0700ffff37000000fa000080fa0004
:040a4c0000000600a0
:020000040000fa
:020000040015e5
:047e0000ffffff0081
:020000040000fa
:020000040015e5
:047e2000ff1f000040
:020000040000fa
:020000040015e5
:047e300078ffff00d8
:020000040000fa
:020000040015e5
:047e3800b7ffff0091
:020000040000fa
:020000040015e5
:047e40009fffff00a1
:020000040000fa
:020000040015e5
:047e4800ffffff0039
:020000040000fa
:020000040015e5
:047e5000dfffff0051
:020000040000fa
:020000040015e5
:047e5800ffffff0029
:020000040000fa
:020000040100f9
:04300000ffffff00cf
:00000001FF
