:020000040000fa
:080000000001040000000000f3
:020000040000fa
:04000800560400009a
:020000040000fa
:04000c009804000054
:020000040000fa
:04001000d804000010
:020000040000fa
:04001400760400006e
:020000040000fa
:04001800b804000028
:020000040000fa
:04001c00f8040000e4
:020000040000fa
:04002000f8040000e0
:020000040000fa
:04002400f8040000dc
:020000040000fa
:04002800f8040000d8
:020000040000fa
:04002c00f8040000d4
:020000040000fa
:04003000f8040000d0
:020000040000fa
:04003400f8040000cc
:020000040000fa
:04003800f8040000c8
:020000040000fa
:04003c00f8040000c4
:020000040000fa
:04004000f8040000c0
:020000040000fa
:04004400f8040000bc
:020000040000fa
:04004800f8040000b8
:020000040000fa
:04004c00f8040000b4
:020000040000fa
:04005000f8040000b0
:020000040000fa
:04005400f8040000ac
:020000040000fa
:04005800f8040000a8
:020000040000fa
:04005c00f8040000a4
:020000040000fa
:04006000f8040000a0
:020000040000fa
:04006400f80400009c
:020000040000fa
:04006800f804000098
:020000040000fa
:04006c00040200008a
:020000040000fa
:04007000f804000090
:020000040000fa
:04007400f80400008c
:020000040000fa
:04007800f804000088
:020000040000fa
:04007c00f804000084
:020000040000fa
:04008000f804000080
:020000040000fa
:04008400f80400007c
:020000040000fa
:04008800f804000078
:020000040000fa
:04008c00f804000074
:020000040000fa
:04009000f804000070
:020000040000fa
:04009400f80400006c
:020000040000fa
:04009800f804000068
:020000040000fa
:04009c00f804000064
:020000040000fa
:0400a000f804000060
:020000040000fa
:0400a400f80400005c
:020000040000fa
:0400a800f804000058
:020000040000fa
:0400ac00f804000054
:020000040000fa
:0400b000f804000050
:020000040000fa
:0400b400f80400004c
:020000040000fa
:0400b800f804000048
:020000040000fa
:0400bc00f804000044
:020000040000fa
:0400c000f804000040
:020000040000fa
:0400c400f80400003c
:020000040000fa
:0400c800f804000038
:020000040000fa
:0400cc00f804000034
:020000040000fa
:0400d000f804000030
:020000040000fa
:0400d400f80400002c
:020000040000fa
:0400d800f804000028
:020000040000fa
:0400dc00f804000024
:020000040000fa
:0400e000f804000020
:020000040000fa
:0400e400f80400001c
:020000040000fa
:0400e800f804000018
:020000040000fa
:0400ec00f804000014
:020000040000fa
:0400f000f804000010
:020000040000fa
:0400f400f80400000c
:020000040000fa
:0400f800f804000008
:020000040000fa
:0400fc00f804000004
:020000040000fa
:04010000f8040000ff
:020000040000fa
:04010400f8040000fb
:020000040000fa
:04010800f8040000f7
:020000040000fa
:04010c00f8040000f3
:020000040000fa
:04011000f8040000ef
:020000040000fa
:04011400f8040000eb
:020000040000fa
:04011800f8040000e7
:020000040000fa
:04011c00f8040000e3
:020000040000fa
:04012000f8040000df
:020000040000fa
:04012400f8040000db
:020000040000fa
:04012800f8040000d7
:020000040000fa
:04012c00f8040000d3
:020000040000fa
:04013000f8040000cf
:020000040000fa
:04013400f8040000cb
:020000040000fa
:04013800f8040000c7
:020000040000fa
:04013c00f8040000c3
:020000040000fa
:04014000f8040000bf
:020000040000fa
:04014400f8040000bb
:020000040000fa
:04014800f8040000b7
:020000040000fa
:04014c00f8040000b3
:020000040000fa
:04015000f8040000af
:020000040000fa
:04015400f8040000ab
:020000040000fa
:04015800f8040000a7
:020000040000fa
:04015c00f8040000a3
:020000040000fa
:04016000f80400009f
:020000040000fa
:04016400f80400009b
:020000040000fa
:04016800f804000097
:020000040000fa
:04016c00f804000093
:020000040000fa
:04017000f80400008f
:020000040000fa
:04017400f80400008b
:020000040000fa
:04017800f804000087
:020000040000fa
:04017c00f804000083
:020000040000fa
:04018000f80400007f
:020000040000fa
:04018400f80400007b
:020000040000fa
:04018800f804000077
:020000040000fa
:04018c00f804000073
:020000040000fa
:04019000f80400006f
:020000040000fa
:04019400f80400006b
:020000040000fa
:04019800f804000067
:020000040000fa
:04019c00f804000063
:020000040000fa
:0401a000f80400005f
:020000040000fa
:0401a400f80400005b
:020000040000fa
:0401a800f804000057
:020000040000fa
:0401ac00f804000053
:020000040000fa
:0401b000f80400004f
:020000040000fa
:0401b400f80400004b
:020000040000fa
:0401b800f804000047
:020000040000fa
:0401bc00f804000043
:020000040000fa
:0401c000f80400003f
:020000040000fa
:0401c400f80400003b
:020000040000fa
:0401c800f804000037
:020000040000fa
:0401cc00f804000033
:020000040000fa
:0401d000f80400002f
:020000040000fa
:0401d400f80400002b
:020000040000fa
:0401d800f804000027
:020000040000fa
:0401dc00f804000023
:020000040000fa
:0401e000f80400001f
:020000040000fa
:0401e400f80400001b
:020000040000fa
:0401e800f804000017
:020000040000fa
:0401ec00f804000013
:020000040000fa
:0401f000f80400000f
:020000040000fa
:0401f400f80400000b
:020000040000fa
:0401f800f804000007
:020000040000fa
:0401fc00f804000003
:020000040000fa
:100200000f8520000eff27000e018800000000006f
:10021000000020000000e000020032000001200089
:100220002002880014000700f30107000000e0002e
:1002300003003a0080842000010020000200370003
:100240000000200001002000810f7000010032003a
:1002500014000700000020000000e000020032004f
:1002600000000200000000002c0702000000000057
:100270000040da000000fe004440a90020002000f9
:100280000000e00003003200100020009001880010
:100290004440a800000006008a1f78008b1f7800e9
:1002a00000000600a1028800800478000000eb0036
:1002b0001f003700e284440054a0b4009905ba003e
:1002c000e284440054a0b4009906ba00e2844400d9
:1002d00054a0b4000006eb00476fde00fd07b2003b
:1002e000ae018800636ce10003003a00eaff0700fa
:1002f0000000eb000e003700606ce10008003a00df
:10030000004deb000a05e800020039003420ec0043
:100310000af0a0008b05e900f9ff3e000400370059
:100320006168e100010032000086eb000b0007006d
:1003300019c7ba001905ba000e04e00003003a001c
:100340000a00e000dbff3a0000000600fe07b200f2
:10035000ae0288008a047800f5ff37000cd0a300b5
:10036000e20f4d001c00390089027800354dba00bb
:100370000a05e800020039003420ec000af0a00071
:100380008b05e9000f003200254dba000a05e80090
:10039000020039003420ec000af0a0008b05e900cf
:1003a000080032000c00e0000600320015cdba0053
:1003b0000a05e800020039003420ec000af0a00031
:1003c0008b05e9008984e80054a0b4000b00e0002c
:1003d000e2ff3a00000006009902ba00055d7800cd
:1003e0008b05e900f7ff3200c82ade00055d7800c2
:1003f0008b05e900f3ff32000c00e000f1ff320052
:1004000019ddba00eeff37003600f800809fbe000d
:10041000829fbe00849fbe00869fbe000000fa003f
:100420008a20a900f12480000008200000806000dc
:100430000000e000080032009ee4a9000828ef0058
:1004400070408000200090008000eb0001087800e0
:100450000e28ef000e013700404080008000eb00c6
:10046000b200200003002000820f5000838f58004c
:10047000fd003e00006001000b0037003a0037002d
:10048000760037009d003700f4003700c9003700c0
:10049000da003700f1003700dc003700f2003700e7
:1004a0003500370051003700008020002000900008
:1004b000620060000000e000f4003a0000802000cc
:1004c0001000900070408800008020001000900014
:1004d000104078000ae8b70000802000100090006b
:1004e0001000900060408800008020001000900004
:1004f000e6004000008020001100980000802000ed
:10050000100090008000780040842000808f500010
:1005100003003a0000802000e183200011009800d1
:1005200000802000a00090000100a10021009800a0
:1005300000802000900090000080200010007800d3
:10054000808f500004003a0000802000a00090003e
:100550000110a000210098009a04a80020002000ab
:1005600040408800ca0037009a24a80020002000dc
:1005700040408800c6003700f124800000002800b9
:10058000008060000000e0000800320000802000d1
:10059000604090008040e8000080200061409800aa
:1005a0004000200049010700b9003700804080006a
:1005b0008000d100f00f200000806000b02488008f
:1005c0008040800061006000004078000004e0008e
:1005d00003003200b000200040408800ac0037002b
:1005e0003000200040408800a9003700f12480003e
:1005f00000002800008060000000e00008003200d9
:1006000000802000604090008040e80000802000d2
:1006100061409800400020002c0107009c0037003a
:100620009a24a800804080004800de00e6006000b8
:10063000000f200001007000804088008040800092
:100640000000a0008040880010c0b30012e8b7008e
:1006500020002000404088008d00370012c8bf00f5
:10066000e14f50000a003200604080001000780026
:10067000804088006040800020009000a0408800fa
:10068000604080002040900016e8b700010037006d
:100690001268ef0081408000f00f2000808f500032
:1006a00009003600804080004800de00e60060005f
:1006b000000f200001007000b0248800a00020007e
:1006c000404088007200370080408000b0248800dd
:1006d0008040800061006000004078000004e0007d
:1006e00003003200500020004040880068003700be
:1006f000300020004040880065003700f124800071
:1007000000002800008060000000e00009003200c6
:1007100000802000604090008040e80000802000c1
:10072000614098009fe4a90050002000e700070006
:100730005700370016c8bf008080fb008100e90029
:10074000cf08de00814078000040e90016e8b700dd
:100750000104e000100032006040800066004000ac
:10076000604088000ac8bf000040e9000ae8b700fe
:100770000ac8bf000004e00003003a002000200087
:10078000d2000700420037009a24a8002000200071
:10079000404088003e003700a04080009040780034
:1007a0008180fb00b12488000000e800a0408800a0
:1007b00037003700f124800000002800008060002e
:1007c0000000e0000900320000802000604090003e
:1007d0008040e80000802000614098004000200038
:1007e000ba0007009fe4a900290037009a64a80016
:1007f0008000200040408800250037008000200055
:10080000404088009a64a80021003700a040800082
:10081000a124800081407800014878000000e800b1
:10082000a040880016c8bf000040e90016e8b700e5
:1008300016c8bf000004e000040032009aa4a9001a
:100840006000200040408800020037009aa4a80001
:100850008d0007009a84a8000d00370020002000ba
:100860009a0007000a0037000080200060409000d6
:100870008040e80000802000614098006000200077
:100880009200070000000000010037000000000097
:100890000080fa004f03be004f02be004f01be00b1
:1008a0004f00be003600f900004006003600f80098
:1008b000809fbe00829fbe00849fbe00869fbe00b8
:1008c0000000fa008020a9000000eb0001020700f0
:1008d0000080fa004f03be004f02be004f01be0071
:1008e0004f00be003600f900004006003600f80058
:1008f000809fbe00829fbe00849fbe00869fbe0078
:100900000000fa00fa0107008040a9001000200052
:10091000f00107000080fa004f03be004f02be0046
:100920004f01be004f00be003600f9000040060037
:100930003600f800809fbe00829fbe00849fbe00ec
:10094000869fbe000000fa008060a9002000200001
:10095000e00107000080fa004f03be004f02be0016
:100960004f01be004f00be003600f90000400600f7
:100970003600f800809fbe00829fbe00849fbe00ac
:10098000869fbe000000fa008080a9003000200091
:10099000d00107000080fa004f03be004f02be00e6
:1009a0004f01be004f00be003600f90000400600b7
:1009b0003600f800809fbe00829fbe00849fbe006c
:1009c000869fbe000000fa008600a900700020008b
:1009d000c00107000080fa004f03be004f02be00b6
:1009e0004f01be004f00be003600f9000040060077
:0c09f0000040da000000fe0000000500de
:020000040000fa
:1009fc000000fa0000802000e18320001100980024
:100a0c0000802000e1832000010878000080200095
:100a1c00a00090000110a000210098000080200090
:100a2c00a00090000100a10021009800008020008f
:100a3c008040eb006140980020012000c024880019
:100a4c0000002800d02488009e24ef009c24ef0096
:100a5c008a20a9009a20a8000080fa000000060055
:100a6c000200fa0000802000e0409000014f780066
:100a7c001e4078000080fa00000006000000fa001a
:100a8c006040800066004000604088000ac8bf00db
:100a9c000040e9000ae8b7000ac8bf000004e00003
:100aac0003003a004000200040408800020037005c
:100abc0010002000404088000080fa000000060072
:100acc000200fa00000f78009a44a80070408000e1
:100adc00200090000000e000030032007040800015
:100aec00200090001e0878000828ef000080fa0013
:100afc00000006000800fa00000f7800214798005b
:100b0c0022079800330798000080200020009000f6
:100b1c00610060000000e0000a003a00ae019000a5
:100b2c002e4190009e007800a084200078000700e1
:100b3c003e019000a184200010c0b3001f000700ec
:100b4c00030037003e0090008000eb0001087800a5
:100b5c000080fa00000006000800fa00000f780080
:100b6c002147980022079800330798000080200046
:100b7c0020009000610060000000e0000a003a00d4
:100b8c00ae0190002e4190009e0078004084200021
:100b9c00470007003e0190004184200010c0b300c4
:100bac0006000700030037003e0090008000eb00b9
:100bbc00010878000080fa00000006000600fa0028
:100bcc00004f780011079800220798000080200041
:100bdc0020009000610060000000e0002f003a004f
:100bec002e009000110020000108780000802000e9
:100bfc00100078009e0090001100980000802000ea
:100c0c00100078001e48780000802000100078004a
:100c1c00ae009000210098000080200010007800a9
:100c2c00e6004000008020000108780000802000d1
:100c3c00100078008000780040842000808f5000e5
:100c4c0003003a0000802000e183200001087800b6
:100c5c0000802000a00090000110a100210098004d
:100c6c000080200090009000008020001000780090
:100c7c00808f500004003a0000802000a0009000fb
:100c8c000100a00021009800404080000000e0001e
:100c9c0005003a008a20a800030037002e009000bf
:100cac008000eb00010878000080fa0000000600cc
:100cbc000800fa00000f78001107980042479800ce
:100ccc00330798003e009000000040008000780040
:100cdc001e007800010878001e00780010007800d3
:100cec00800078000100a0001e0078000108780048
:100cfc001e007800ce409000214098001e00780025
:100d0c009e009000210098000080fa000000060070
:100d1c000800fa00000f780011079800424798006d
:100d2c00330798003e0090000000400080007800df
:100d3c001e007800010878001e007800ce4090005c
:100d4c00214098001e0078009e0090002100980021
:100d5c000080fa00000006000000fa00008020006d
:100d6c00200090006200600000f0a7000000ea0084
:100d7c000000ea004f00de00004078000080fa001e
:100d8c00000006000000fa00008020002000900007
:100d9c006100600000f0a7000000ea000000ea001b
:100dac004f00de00004078000080fa0000000600d2
:100dbc000600fa0020479800314798002207980057
:100dcc00ae409000014f7800be4090001147980053
:100ddc00ae0190009203200021c0b3000e007800f9
:100dec0044ff07000080fa00000006000600fa002d
:100dfc0020479800210798000e80e800ae01900073
:100e0c009203200011c0b3003aff070000dc25005c
:100e1c0001002000ba000700ae01900092032000f0
:100e2c0021c0b3000e0078004bff07001e40780075
:100e3c008080fb001e4090000080fb004800dd001d
:100e4c00010070000080fa00000006000400fa00a7
:100e5c00ce0007006226ef000e0178008040eb0008
:100e6c000040eb00d2ff07000e01780080c0eb00c1
:100e7c0010c0b300ceff07000e01780080c0eb005d
:100e8c0020c0b300caff07000e01780080c0eb0041
:100e9c0030c0b300c6ff07000e01780081c0b3005c
:100eac00e0c0b300c2ff07000e01780001c2b3001e
:100ebc00f0c0b300beff07000e017800f1c0b30014
:100ecc000040eb00baff070000dc25000100200009
:100edc008b00070000cab300204798000e80e80082
:100eec008e0178009203200011c0b30001ff0700af
:100efc008e00780040c1b300bcff0700303388007f
:100f0c0000dc2500010020007d000700f1ff370008
:100f1c000000fa0000002c00303388007a26ef0025
:100f2c008e26ef00a226ef00b626ef00ca26ef00b1
:100f3c00de26ef00f06f2c00103388000080eb00f1
:100f4c00b0338800e0012700503488000080eb00ab
:100f5c00f0348800f03f200090358800f01b23000f
:100f6c0030368800f03c2f00d03688007426ef0015
:100f7c008826ef009c26ef00b026ef00c426ef0079
:100f8c00d826ef00ec26ef007226ef008626ef0045
:100f9c009a26ef00ae26ef00c226ef00d626ef0011
:100fac00ea26ef006826ef007c26ef009026ef0083
:100fbc00a426ef00b826ef00cc26ef00e026ef00c9
:100fcc00006c200050338800f0f32f00f0338800c1
:100fdc000001220090348800000c2000303588007d
:100fec0000212000d0358800003c200010378800fc
:100ffc000080fa00000006000000fa000000230048
:10100c00100888000621ef006821ef006a21ef002c
:10101c000821ef0000702000500888000c21ef0020
:10102c000e21ef007821ef007a21ef007c21ef00f8
:10103c007e21ef008021ef008221ef008421ef0060
:10104c008621ef000001eb0080072000a1092000a1
:10105c00131020008049780081497800824978007b
:10106c000001eb006004200071052000031020003b
:10107c008049780081497800824978000080fa0024
:04108c00000006005a
:020000040000fa
:101090003e08000012000000800000000008000070
:1010a00018000000800000001e0800002000000062
:1010b000800000001c080000020000008200000008
:1010c000ffff00001808000004000000800000007e
:0410d000000000001c
:020000040000fa
:1010d4000200fa00000f78009e007800e1408800ca
:1010e4000000fe000080fa00000006000000fa0084
:1010f400e0812000800778006083200000018800e0
:081104000080fa000000060063
:020000040000fa
:10110c00f03fb1000180b10006003500ee0309008c
:10111c0000000000403fb1000180b100fbff3d002a
:10112c001000b000203fb000020035000080090024
:08113c000000000000000600a5
:020000040000fa
:101144000000fa0081058000f0f82f0000806000a4
:101154000040a000800588008105800080ff2f00ea
:10116400008060000000a000800588000080fa0074
:1011740000000600809fbe00ec805700310078001c
:10118400c0408800110078001ae8b7004f00be0084
:10119400000006000000fa005fff070098ff070048
:1011a400e7ff070014fe07000080fa0000000600b5
:020000040000fa
:020000040015e5
:047e0000ffffff0081
:020000040000fa
:020000040015e5
:047e2000ff1f000040
:020000040000fa
:020000040015e5
:047e300078ffff00d8
:020000040000fa
:020000040015e5
:047e3800b7ffff0091
:020000040000fa
:020000040015e5
:047e40009fffff00a1
:020000040000fa
:020000040015e5
:047e4800ffffff0039
:020000040000fa
:020000040015e5
:047e5000deffff0052
:020000040000fa
:020000040015e5
:047e5800ffffff0029
:020000040000fa
:020000040100f9
:04300000ffffff00cf
:00000001FF
